:020000040800F2
:1000000000060020D50000082D1D00083B1900083F
:1000100000000000000000000000000000000000E0
:100020000000000000000000000000008B1F00081E
:100030000000000000000000891F00088D1F00085C
:10004000E7000008E7000008E7000008E7000008F4
:10005000E7000008E7000008E7000008E7000008E4
:1000600000000000E7000008E700000800000000B2
:10007000E7000008C11F0008E700000800000000BA
:10008000D11F0008E700000800000000E70000089A
:1000900000000000E7000008E7000008E700000893
:1000A00000000000E700000800000000E700000872
:1000B000E700000800000000000000000000000051
:1000C0000348854600F062F800480047B101000887
:1000D000000600200448804704480047FEE7FEE78A
:1000E000FEE7FEE7FEE7FEE7951F0008C1000008F7
:1000F00030B50B46014600202022012409E00D46C0
:10010000D5409D4205D31D469540491B2546954047
:1001100040191546521E002DF1DC30BD70B500248B
:100120002546002801DA01244042002901DA012590
:100130004942FFF7DDFFAC4200D04042002C00D026
:10014000494270BD03460B439B0703D009E008C931
:10015000121F08C0042AFAD203E00B780370401C77
:10016000491C521EF9D27047D2B201E00270401C05
:10017000491EFBD270470022F6E710B513460A4627
:1001800004461946FFF7F0FF204610BD064C012536
:10019000064E05E0E36807CC2B430C3C984710342F
:1001A000B442F7D3FFF790FFCC3D0008EC3D0008C8
:1001B00070B50125ED06002406E0A0002858A10036
:1001C000064A5050601CC4B2302CF6DB01204007B8
:1001D0000349886002F03AFD002070BD0000002055
:1001E00000ED00E000B58BB01C2104A8FFF7C3FFB1
:1001F000002000900190029003900B200490FF20BB
:10020000013007900020089012488088C004C00C7C
:100210000121490308430990002005900820069019
:1002200000200A9004A800F0B9FF002801D000F0D7
:1002300013F8072000900020019002900390002105
:10024000684600F07FFE002801D000F005F80BB0F2
:1002500000BD0000000FFF1F00BFFEE7FFB581B02B
:10026000074614461E46002530E0102C07D1A80092
:10027000325838460A9B029900F090F815E0182C85
:1002800007D1A800325838460A9B029900F0B8F806
:100290000BE0202C07D1A800325838460A9B02995F
:1002A00000F0E2F801E005B0F0BD3819C7B28020D7
:1002B000001BB84209DA00272046E117490F091848
:1002C000CA1002995118C9B202916D1C0B9885424F
:1002D000CBD300BFE7E70000FFB581B00F46002693
:1002E0000024002503982038C6B201987F2803DD3A
:1002F00000200190B81CC7B20498102828D100250E
:1003000023E07819C1B2019801F0E4FD002418E05F
:100310000A98002809D031010919EA0089181D4AF4
:10032000505C012101F0EEFD09E031010919EA00FC
:100330008918184A515CC843012101F0E3FD601C93
:10034000C4B2082CE4DB681CC5B2022DD9DB1EE068
:100350003946019801F0BEFD002416E00A980028F5
:1003600008D0062171430C4A8918085D012101F06B
:10037000C9FD08E006217143074A8918095DC84391
:10038000012101F0BFFD601CC4B2062CE6DB05B004
:10039000F0BD00001E350008E4320008FFB581B052
:1003A0000F461646002424E03819C1B2019801F026
:1003B00091FD002519E00498002807D070010F492D
:1003C000401821014919405C009008E070010B4978
:1003D000401821014919405CC043C0B2009001217E
:1003E000009801F08FFD681CC5B2102DE3DB601C86
:1003F000C4B2022CD8DB05B0F0BD00000E3B0008F3
:10040000FFB581B01646002427E002980019C1B25A
:10041000019801F05FFD00251BE00498002808D03A
:10042000482070430F4941181820604340190F5C61
:1004300009E0482070430B494118182060434019D7
:10044000085CC043C7B20121384601F05BFD681C5F
:10045000C5B2182DE1DB601CC4B2032CD5DB05B09E
:10046000F0BD0000EE3C0008FFB581B00F46164617
:10047000002424E03819C1B2019801F02BFD0025B9
:1004800019E00498002807D0F0010F4940186101D5
:100490004919405C009008E0F0010B4940186101E7
:1004A0004919405CC043C0B200900121009801F09E
:1004B00029FD681CC5B2202DE3DB601CC4B2042CEE
:1004C000D8DB05B0F0BD0000363D0008FFB583B0B5
:1004D000054616461C460027102C06D12046E10F83
:1004E0000918C905090E02910BE0082C07D1204616
:1004F000E10F09184910891CC9B2029101E007B047
:10050000F0BD18E00C980090F25D2346284604994F
:10051000FFF7E2FE02982818C5B2782D09DD002504
:100520002046E117490F0918CA1004995118C9B299
:100530000491781CC7B2F05D0028E3D100BFDEE76C
:1005400070B5044600F0FCF806462546681C0028F5
:1005500002D0054800682D1800BF00F0F1F8801B9C
:10056000A842FAD370BD0000DC00002070B503463D
:100570000022CBE0012696400C683440002C71D05C
:100580004D68022D02D04D68122D15D1D508AE0050
:100590001D462035A8595507EE0E0F25B5400646D5
:1005A000AE4330465607F60E0D69B5402843D508D0
:1005B000AD001E4620367051186856000325B54020
:1005C0000646AE4330460D79AD07AD0F5600B54037
:1005D000284318604D68012D08D04D68022D05D0C4
:1005E0004D68112D02D04D68122D18D19868560013
:1005F0000325B5400646AE4330465600CD68B540AB
:10060000284398605868012595400646AE43304619
:1006100010264D6835402D09954028435860D8680C
:1006200056000325B5400646AE43304656008D6859
:10063000B5402843D860012636074D683540B5429D
:1006400063D1354D9608B600A8599507EE0E0F25D3
:10065000B5400646AE43304605252D07AB4202D1D4
:10066000002506E051E02D4DAB4201D1012500E00F
:1006700002259607F60EB5402843274D9608B6008A
:10068000A851254D203528680546A5432846012652
:1006900036044D683540B54202D10546254328460B
:1006A0001D4D2035286068680546A543284601266B
:1006B00076044D683540B54202D1054625432846AB
:1006C000154D20356860144D603D28680546A543EA
:1006D0002846012636054D683540B54202D105460B
:1006E000254328460C4D603D286068680546A543B3
:1006F0002846012676054D683540B54202D10546AB
:1007000025432846044D603D6860521C0D68D54065
:10071000002D00D02EE770BD60180240000400508C
:10072000024613690B40002B01D0012000E000209D
:100730007047002A01D0816100E0816270470000AB
:100740000148006870470000D400002001463120B5
:10075000405C704770B50446002C01D1012070BD8B
:100760003120005D002805D10021302001552046B0
:1007700000F01EFB2421312001552068006840084C
:1007800040002168086000F0B5FC054659496068E2
:10079000884206D85848854201D2012007E000204F
:1007A00005E05648854201D2012000E000200128E2
:1007B00000D1D4E752492846FFF79AFC0646206844
:1007C0004068810989013143206841604949606876
:1007D000884201D8701C08E0FF212D317143084682
:1007E0007D21C900FFF784FC401C2168096A890942
:1007F00089010843216808623E496068884214D82C
:1008000062685100681EFFF773FC401C0005000D74
:10081000042801D2042041E062685100681EFFF7FD
:1008200067FC401C0005000D38E0A068002807D1D7
:1008300062685300D118681EFFF75AFC401C0AE09A
:10084000192362685A431146681EFFF751FC401C89
:100850000121890340180005000D002801D1012065
:100860001CE0A068002809D162685300D118681EF6
:10087000FFF73EFC401C0005000D0CE019236268E8
:100880005A431146681EFFF733FC401C0005000D5B
:100890000121890340180121C90308432168C9695E
:1008A000184A114008432168C861616920690843FA
:1008B00021680968C02291430843216808602068C4
:1008C0008068FE218843E1680843216888602068C9
:1008D000006801210843216808600020606320212E
:1008E0003120015500206062002132200155002096
:1008F00035E70000A086010080841E0000093D004D
:1009000040420F000030FFFFFFB581B0044617469C
:100910000A9EFFF715FF05463120005D202874D19F
:1009200019230122BF492046009501F0E3F8002871
:1009300002D0022005B0F0BD00BF3020005D0128CC
:1009400001D10220F6E701213020015500BF2068C7
:1009500000680840002804D1206800680843216826
:100960000860206800680121C90288432168086086
:1009700022213120015510213220015500206063D1
:10098000A7610498E083E08BA083A74820622B46F0
:1009900032462046029900F0F3FF002801D00120E2
:1009A000C8E7A08B002811D100BF009020684069E3
:1009B000009020688069009000BF00BF2068006838
:1009C0000121490208432168086050E0A08B0128FA
:1009D0001CD12068006801218902884321680860D1
:1009E00072B600BF00200090206840690090206827
:1009F0008069009000BF00BF2068006801214902A3
:100A000008432168086062B631E009E1A08B022842
:100A10001BD1206800680121C902084321680860D1
:100A200072B600BF002000902068406900902068E6
:100A30008069009000BF00BF206800680121890222
:100A400088432168086062B611E0206800680121CF
:100A5000890208432168086000BF002000902068D8
:100A60004069009020688069009000BF00BFC7E027
:100A7000A08B032876D8A08B012816D12A463146B0
:100A8000204601F0DFF8002801D0012052E720685D
:100A90000069A1690870A069401CA061A08B401E7C
:100AA000A083E08B401EE083AAE0A08B02282ED119
:100AB000334600225D492046009501F01BF80028CE
:100AC00001D0012036E772B6206800680121490292
:100AD00008432168086020680069A1690870A0695E
:100AE000401CA061A08B401EA083E08B401EE083D1
:100AF00062B620680069A1690870A069401CA06105
:100B0000A08B401EA083E08B401EE08378E033463C
:100B1000002246492046009500F0ECFF002801D055
:100B2000012007E7206800680121890288432168C5
:100B3000086072B620680069A1690870A069401C4D
:100B4000A061A08B401EA083E08B401EE083334653
:100B5000002236492046009500F0CCFF002802D044
:100B60000120E7E622E020680068012149020843ED
:100B70002168086020680069A1690870A069401CAC
:100B8000A061A08B401EA083E08B401EE08362B674
:100B900020680069A1690870A069401CA061A08B51
:100BA000401EA083E08B401EE08329E02A463146A8
:100BB000204601F047F8002801D00120BAE620685D
:100BC0000069A1690870A069401CA061A08B401E4B
:100BD000A083E08B401EE083206840690421084028
:100BE000800800280CD020680069A1690870A069FD
:100BF000401CA061A08B401EA083E08B401EE083C0
:100C0000A08B002800D033E720213120015500219E
:100C10003220015500BF3020015500BF002089E679
:100C2000022087E6020010000000FFFF0400010020
:100C3000FFB581B0044616461F46FFF781FD054605
:100C40003120005D20287DD11923012256492046FC
:100C5000009500F04FFF002802D0022005B0F0BD43
:100C600000BF3020005D012801D10220F6E70121FC
:100C70003020015500BF206800680840002804D1DA
:100C80002068006808432168086020680068012126
:100C9000C9028843216808602121312001551021B3
:100CA0003220015500206063A661E783E08BA083BA
:100CB0003E4820622B4620460A9A029900F0A8FE80
:100CC000002801D00120C9E700BF00200090206863
:100CD0004069009020688069009000BF00BF4BE031
:100CE0002A4620460A9900F0EFFF00280BD0606BDF
:100CF000042806D1206800680121490208432168C0
:100D000008600120AAE7A069007821680861A0694D
:100D1000401CA061E08B401EE083A08B401EA0839E
:100D200020684069042108408008002811D0A08B69
:100D300000280ED0A069007821680861A069401CD5
:100D4000A06100E02EE0E08B401EE083A08B401EFF
:100D5000A0832A4620460A9900F09AFE00280BD06C
:100D6000606B042806D1206800680121490208430D
:100D700021680860012071E7A08B0028B0D12068AD
:100D800000680121490208432168086020213120C0
:100D9000015500213220015500BF3020015500BF10
:100DA00000205BE7022059E7020010000000FFFF6F
:100DB00010B586B00446142101A8FFF7DCF900BF86
:100DC0001D48C06B0121490508431B49C8630846FB
:100DD000C06B012149050840009000BF00BF00BF63
:100DE0001548406B01210843134948630846406B8E
:100DF000C007C00F009000BF00BF0C200190122060
:100E0000029001200390032004900C20059001A97A
:100E100005200007FFF7AAFB0748C06A0121490522
:100E200008430549C8620846C06A0121490588434C
:100E30000149C86206B010BD0010024003480068B6
:100E4000034909684018014908607047D400002030
:100E5000DC00002010B50024032000F009F8002871
:100E600001D0012401E000F033F8204610BD00005D
:100E7000F8B5044600251348006800281ED0114824
:100E800001687D20C000FFF733F9074639460E4858
:100E90000068FFF72DF9064600F0F8FA00280BD19C
:100EA000042C07D200222146401E00F041F80748DA
:100EB000046004E0012502E0012500E00125284648
:100EC000F8BD0000DC000020C0000020D800002099
:100ED00008B500BF0E480068012108430C490860AE
:100EE00008460068C007C00F009000BF00BF00BFE9
:100EF00007484038C06B8905084305494039C86335
:100F00000846C06B09040840009000BF00BF08BD40
:100F1000401002400146002905DBCB06DB0E012212
:100F20009A40024B1A6000BF7047000000E100E0E9
:100F300070B504460D4616462946204601F0F6F9DE
:100F400070BD000070B504460D46002C01D1012093
:100F500070BD5F480068C007C00FA84218D25C4847
:100F6000006840084000284359490860FFF7E8FB43
:100F7000064607E0FFF7E4FB801B5649884201D98B
:100F80000320E5E752480068C007C00FA842F1D12E
:100F9000022120680840022815D104212068084059
:100FA000042807D14C48806807210903884340186A
:100FB00049498860484880680F2109028843A16830
:100FC0000843454988602078C007C00F00283CD0FE
:100FD0006068012808D140480068012149040840A0
:100FE000002816D10120B3E76068002808D13A48EC
:100FF000006801218902084000280AD10120A7E7E2
:1010000035484030006A02210840002801D1012003
:101010009EE731488068C008C000616808432E49D7
:101020008860FFF78DFB064607E0FFF789FB801B12
:101030002849884201D903208AE727488068382157
:1010400008406168C9008842EFD121480068C007A4
:10105000C00FA84218D91E48006840084000284325
:101060001B490860FFF76CFB064607E0FFF768FBCB
:10107000801B1849884201D9032069E71448006899
:10108000C007C00FA842F1D10421206808400428FD
:1010900008D111488068072109038843E1680843A3
:1010A0000D49886000F03AF80B4989680F22120256
:1010B0001140090A8900094A515CC906C90EC84095
:1010C0000749086007480068FFF7D2FE40E70000C4
:1010D0000020024088130000001002403032000857
:1010E000C0000020D80000200148006870470000C0
:1010F000C000002000B5FFF7F7FF06498968072206
:1011000012031140090B8900034A515CC906C90E3C
:10111000C84000BD001002407032000870B586B0B3
:1011200014221B4901A8FFF70DF81A4880683821DE
:101130000840002817D11748006809020840C10A72
:1011400001268E4013484068072149030840450B9B
:10115000042D00D90025A90001AA50583146FEF7F8
:10116000C7FF044611E00B48806838210840082872
:1011700001D1094C09E00748806838210840182847
:1011800002D10124E40300E00024204606B070BD33
:10119000B83D00080010024000366E0170B50446EC
:1011A000002C01D1012070BD2078C007C00F00289D
:1011B00077D0B248866838210E40082E09D10068E1
:1011C000B103084000286CD06068002869D1012074
:1011D000E9E7606800280DD0A068002808D0A7487B
:1011E00000690C218843A1680843A449086101E013
:1011F0000120D8E700BF012109046068884205D1B9
:101200009E48006808439D49086021E005210904C3
:10121000606888420ED1994800680121890408431A
:10122000964908600846006801210904084393496B
:1012300008600DE0914800680121090488438F4946
:101240000860084600680121890488438B490860CA
:1012500000BF6068002812D0FFF772FA054606E06A
:10126000FFF76EFA401BC82801D903209BE783488B
:1012700000680121490408400028F1D011E0FFF77F
:101280005FFA054606E0FFF75BFA401BC82801D964
:10129000032088E7794800680121490408400028B4
:1012A000F1D102212068084002287BD17348806870
:1012B000382108400646002E48D1704800680121B8
:1012C00089020840002804D0E068002801D10120EC
:1012D00069E76A484068000C00046169084367498F
:1012E0004860FFF72DFA054606E0FFF729FA401B94
:1012F000022801D9032056E76048006801218902CD
:1013000008400028F1D0002E18D15C480068072161
:10131000C90288432169084358490860FFF7FEFE67
:10132000564989680F2212021140090A8900544A5D
:10133000515CC906C90EC84052490860524800684D
:10134000FFF796FD002847D001202CE7E068002831
:1013500029D04A4800680721C90288432169084307
:1013600046490860084600688915084343490860F3
:10137000FFF7E6F9054606E0FFF7E2F9401B022811
:1013800001D903200FE73D48006801218902084088
:101390000028F1D039484068000C00046169084316
:1013A0003649486018E035480068FF21013188431C
:1013B00032490860FFF7C4F9054606E0FFF7C0F9B7
:1013C000401B022801D90320EDE62C4800680121CA
:1013D000890208400028F1D1082120680840082827
:1013E00049D1264880683821084018280BD1234865
:1013F0004030006A0221084000283CD0A069002843
:1014000039D10120CFE6A06900281AD01B4840300E
:10141000006A01210843194940310862FFF790F939
:10142000054606E0FFF78CF9401B022801D903208E
:10143000B9E612484030006A022108400028F1D085
:1014400019E00E484030006A400840000B49403126
:101450000862FFF775F9054606E0FFF771F9401BD2
:10146000022801D903209EE604484030006A022188
:1014700008400028F1D1002095E60000001002404D
:1014800030320008C0000020D800002070B50446AB
:101490002546681E0949884201D901200CE0681ED2
:1014A000074948610321081F00F040FF002004495C
:1014B000886107200861002070BD0000FFFFFF0069
:1014C00000E000E07047704710B50446002C01D1E1
:1014D000012010BD3D20005D002805D100213C20E9
:1014E0000155204600F00CF802213D200155211D38
:1014F000206800F075FD01213D2001550020E8E73E
:1015000010B586B004462749206888422CD100BF18
:1015100025480068C9140843234908600846006844
:10152000C9140840009000BF00BF00BF1E484038EB
:10153000406B012108431C49403948630846406B11
:10154000C007C00F009000BF00BF02200290012022
:1015500003900220049001900D20059001A9052020
:101560000007FFF703F81BE010492068884217D1F5
:1015700000BF0D484038C06B022108430A4940397A
:10158000C8630846C06B02210840059000BF00BF39
:10159000002211461020FFF7CBFC1020FFF7BAFC09
:1015A00006B010BD002C0140401002400004004075
:1015B00001460868C068012318430B68D8600868B2
:1015C00080684207520F062A05D008680068012388
:1015D00018430B68186000207047704710B5044628
:1015E0002068006902210840400800281CD02068BB
:1015F000C06808404008002816D0481F21680861CC
:1016000001202077206880698007800F002803D0A0
:101610002046FFF7E2FF05E0204600F0FEF82046F6
:1016200000F07CF900202077206800690421084040
:10163000800800281DD02068C06808408008002865
:1016400017D0C8432168086102202077206880698C
:10165000032109020840002803D02046FFF7BDFF00
:1016600005E0204600F0D9F8204600F057F90020A8
:1016700020772068006908210840C00800281CD095
:101680002068C0680840C008002816D0C8432168F8
:101690000861042020772068C0698007800F002837
:1016A00003D02046FFF799FF05E0204600F0B5F88B
:1016B000204600F033F900202077206800691021CF
:1016C0000840000900281DD02068C06808400009B3
:1016D000002817D0C84321680861082020772068B7
:1016E000C069032109020840002803D02046FFF703
:1016F00074FF05E0204600F090F8204600F00EF957
:101700000020207720680069C007C00F01214840F1
:10171000484000280CD02068C06808404840484035
:10172000002805D0C81E21680861204600F0F8F89E
:101730002068006980210840C00900280BD020687B
:10174000C0680840C009002805D0C8432168086166
:101750002046FFF7B7FE2068006940210840800955
:1017600000280BD02068C06808408009002805D0F8
:10177000C84321680861204600F0DEF8206800694F
:1017800020210840400900280BD02068C06808408C
:101790004009002805D0C843216808612046FFF7AA
:1017A00092FE10BD70B504460E46154600BF3C20A3
:1017B000005D012801D1022070BD01213C200155AE
:1017C00000BF02213D200155002D06D0042D09D077
:1017D000082D0CD00C2D14D10EE03146206800F0FD
:1017E00059FC0FE03146206800F0A2FC0AE03146C7
:1017F000206800F0F5FC05E03146206800F046FD69
:1018000000E000BF00BF01213D20015500BF0021C5
:101810003C20015500BF0020CEE7704770B504465C
:101820000E4601223146206800F022FC1249206851
:10183000884207D011492068884203D010492068A7
:10184000884201D1012000E00020002806D0206855
:10185000406C0121C90308432168486420688068FE
:1018600045076D0F062D05D020680068012108434B
:1018700021680860002070BD002C01400044014038
:101880000048014030B504460D4600222946206834
:1018900000F0EEFB1D492068884207D01C492068F3
:1018A000884203D01B492068884201D1012000E012
:1018B0000020002814D000BF2068006A16490840A4
:1018C00000280CD12068006A89100840002806D141
:1018D0002068406C0121C90388432168486400BF27
:1018E00000BF2068006A0C49084000280BD120681E
:1018F000006A89100840002805D120680068400867
:1019000040002168086000BF002030BD002C01406D
:1019100000440140004801401111000070470000E0
:10192000034A0168914202D10121024A11707047B5
:1019300000040040C4000020704700BFFEE70146DD
:1019400008684069012292021040800A002815D0E0
:10195000D0430A685061002048622022312042545E
:10196000002232204254486B04221043486300BFD7
:1019700000223020425400BF012070470020FCE7C5
:10198000FFB581B004460E461F46256A20680068F0
:1019900001218902084321680860082D04D0012D27
:1019A00002D01948854207D120680068FF21013123
:1019B00008432168086009E0606A112806D12068A0
:1019C0000068FF2101310843216808600097002268
:1019D0000E492046039B00F08DF8002802D001201C
:1019E00005B0F0BD01203043C0B2216808613B461C
:1019F0000649491C2046039A00F0BEF8002801D091
:101A00000120EDE70020EBE70000FFFF01000100EF
:101A1000FFB581B004460E461F46256A082D04D046
:101A2000012D02D01848854207D120680068FF21A7
:101A3000013108432168086009E0606A122806D174
:101A400020680068FF210131084321680860009781
:101A500000220E492046039B00F04CF8002802D0DB
:101A6000012005B0F0BDFE203040216808613B46F2
:101A70000649491C2046039A00F07EF8002801D050
:101A80000120EEE70020ECE70000FFFF010001006D
:101A900070B504460D46164623E02046FFF74FFF7B
:101AA000002801D0012070BD681C002819D0FEF765
:101AB00047FE801BA84201D8002D12D10020606291
:101AC000202131200155002132200155606B202159
:101AD0000843606300BF00213020015500BF012092
:101AE000E1E7206840690421084080080028D4D03C
:101AF0000020D8E7F8B504460D4617461E461DE0FF
:101B0000701C00281AD0FEF71BFE0699401AB0423E
:101B100001D8002E12D10020606220213120015511
:101B2000002132200155606B20210843606300BF13
:101B300000213020015500BF0120F8BD2802000E11
:101B400001280AD120684069A9B20840A9B2884298
:101B500001D101200BE0002009E020688069A9B2D2
:101B60000840A9B2884201D1012000E00020B8421B
:101B7000C6D00020E1E70000F8B504460D46164641
:101B80001F4640E020684069012189020840800A20
:101B900000281BD0206800684910084321680860AD
:101BA00027482168486100206062202131200155CA
:101BB000002132200155606B04210843606300BF9F
:101BC00000213020015500BF0120F8BD701C002805
:101BD00019D0FEF7B5FDC01BB04201D8002E12D1BE
:101BE0000020606220213120015500213220015562
:101BF000606B20210843606300BF00213020015545
:101C000000BF0120E1E72802000E01280AD1206868
:101C10004069A9B20840A9B2884201D101200BE075
:101C2000002009E020688069A9B20840A9B2884272
:101C300001D1012000E000200028A3D00020C4E74B
:101C4000FFFBFFFF70B504460D46164633E02068E3
:101C50004069102108400009002812D0C8432168BB
:101C6000486100206062202131200155002132208E
:101C70000155606B606300BF3020015500BF01203B
:101C800070BDFEF75DFD801BA84201D8002D12D16A
:101C900000206062202131200155002132200155B1
:101CA000606B20210843606300BF00213020015594
:101CB00000BF0120E4E72068406940210840800916
:101CC0000028C4D00020DBE770B504460D46164658
:101CD00023E02046FFF733FE002801D0012070BD2D
:101CE000681C002819D0FEF72BFD801BA84201D8E4
:101CF000002D12D1002060622021312001550021E9
:101D000032200155606B20210843606300BF002131
:101D10003020015500BF0120E1E7206840698021A3
:101D20000840C0090028D4D00020D8E77047F8B593
:101D30000646002E01D0FF2500E00025002418E013
:101D40002046B030002100F0DDF80021022000F034
:101D5000D9F80021102000F0D5F8002705E0012176
:101D6000284600F0CFF8781CC7B2802FF7DB601C44
:101D7000C4B2082CE4DBF8BD10B500218D2000F0C2
:101D8000C1F80021102000F0BDF80021AE2000F0C5
:101D9000B9F810BD10B500218D2000F0B3F8002176
:101DA000142000F0AFF80021AF2000F0ABF810BD18
:101DB00010B500F075F8FFF7DFFF0021AE2000F04E
:101DC000A1F80021022000F09DF80021102000F071
:101DD00099F80021402000F095F80021812000F0C2
:101DE00091F80021CF2000F08DF80021A12000F013
:101DF00089F80021C82000F085F80021A62000F015
:101E000081F80021A82000F07DF800213F2000F09B
:101E100079F80021D32000F075F80021084600F081
:101E200071F80021D52000F06DF80021802000F02D
:101E300069F80021D92000F065F80021F12000F0B8
:101E400061F80021DA2000F05DF80021122000F096
:101E500059F80021DB2000F055F80021402000F067
:101E600051F80021202000F04DF80021022000F060
:101E700049F800218D2000F045F80021142000F0E1
:101E800041F80021A42000F03DF80021A62000F038
:101E900039F80021AF2000F035F8FFF77BFF10BDC7
:101EA00010B5012280210A48FEF743FC6420FEF7AA
:101EB00047FB002280210648FEF73BFC6420FEF72A
:101EC0003FFB012280210248FEF733FC10BD0000D9
:101ED0000004005070B504460D462846B03000217D
:101EE00000F010F8A11CF022114009110846103032
:101EF000002100F007F8A11C0807000F002100F0E6
:101F000001F870BD70B504460D46002D05D00122C4
:101F100040211C48FEF70DFC04E000224021194836
:101F2000FEF707FC002220211648FEF702FC0026DF
:101F30001FE080202040002806D001221146052005
:101F40000007FEF7F6FB05E000220121052000074F
:101F5000FEF7EFFB0022802105200007FEF7E9FBDA
:101F60000122802105200007FEF7E3FB6400701CBE
:101F7000C6B2082EDDDB012220210248FEF7D9FB84
:101F800070BD0000000400507047704710B5FEF7A8
:101F900055FF10BD07484068000C000401214903AB
:101FA000401805494968084302494860C803034985
:101FB0008860704700100240000FFF1F00ED00E036
:101FC00010B50248FFF70AFB10BD0000BC0100205D
:101FD00010B50248FFF702FB10BD000034010020DD
:101FE00010B502681D4B984202D01D4B984205D196
:101FF00070241346A3431A464B681A43174B984262
:102000000BD0174B984208D0164B984205D0164B70
:10201000984202D0154B984206D10324240213465D
:10202000A3431A46CB681A4380241346A3434C6942
:1020300023431A4602608B68C3620B688362074BB6
:10204000984205D0084B984202D0084B984201D1E3
:102050000B6903630123436110BD0000002C0140A4
:1020600000040040002000400044014000480140BE
:1020700070B5CD06ED0E0124AC402346046A9C43A6
:102080000462046ACE06F60E1546B5402C4304627F
:1020900070BD000070B5056A6D086D000562026ACA
:1020A0004368846970262546B5432C46A408A400DD
:1020B0000D682C4302261546B5432A468D682A43EF
:1020C000184DA84200D107E0174DA84200D103E007
:1020D000164DA8420AD100BF08261546B5432A4628
:1020E000CD682A4304261546B5432A460D4DA8421D
:1020F00005D00D4DA84202D00C4DA8420CD1FF26B0
:1021000001361D46B5432B4676001D46B5432B468A
:102110004D692B438D692B43436084614D68456352
:10212000026270BD002C01400044014000480140A3
:1021300070B5056A1026B5430562026A4368846972
:10214000072636032546B5432C4603263602254688
:10215000B5432C460D682D022C4320261546B54369
:102160002A468D682D012A431A4DA84200D107E066
:10217000194DA84200D100BF184DA8420BD10AE06A
:1021800080261546B5432A46CD682D012A434026B0
:102190001546B5432A460F4DA84205D00E4DA8421C
:1021A00002D00E4DA8420ED10126B6021D46B543FF
:1021B0002B4676001D46B5432B464D69AD002B439B
:1021C0008D69AD002B43436084614D688563026275
:1021D00070BD0000002C0140004401400048014057
:1021E00070B5056AFF260136B5430562026A436889
:1021F000C46970262546B5432C46A408A4000D6882
:102200002C43012676021546B5432A468D682D02D9
:102210002A431B4DA84200D107E01A4DA84200D125
:1022200000BF194DA8420CD10BE00126F60215465D
:10223000B5432A46CD682D022A4376101546B5438C
:102240002A460F4DA84205D00E4DA84202D00E4D91
:10225000A8420ED1012636031D46B5432B46760013
:102260001D46B5432B464D692D012B438D692D012C
:102270002B434360C4614D68C563026270BD0000BA
:10228000002C0140004401400048014070B5056A3F
:1022900001263603B5430562046A4368C26907260E
:1022A00036031546B5432A46032636021546B5437E
:1022B0002A460D682D022A43012676032546B5439A
:1022C0002C468D682D032C430B4DA84205D00B4D99
:1022D000A84202D00A4DA84207D10126B6031D46E6
:1022E000B5432B464D69AD012B434360C2614D6838
:1022F0000564046270BD0000002C014000440140F0
:10230000004801400FB410B504A9074B02AA039876
:1023100000F058F8044602A9002000F0FBF920461E
:1023200010BC08BC04B018471527000810B50028D9
:1023300019DB1A4A03231B02D21883089B00D258C8
:102340008307DC0EFF23A3409A438B071B0E8407F1
:10235000E40EA3401A43114B032424021B198408E2
:10236000A4001A5118E00E4A03071B0F083B9B08F4
:102370009B00D2588307DC0EFF23A3409A438B07B0
:102380001B0E8407E40EA3401A43054B0407240FD9
:10239000083CA408A4001A5110BD000000E100E0B0
:1023A0001CED00E002E008C8121F08C1002AFAD1A3
:1023B00070477047002001E001C1121F002AFBD1C5
:1023C00070470000FFB58FB00546002606E02528BF
:1023D0000AD0129A119990476D1C761C2878002813
:1023E000F5D1304613B0F0BD002402940121B54A66
:1023F000009400E004436D1C2B780846203B984075
:102400001042F7D128782A280ED0022228780146D7
:102410003039092916D802990A235943303940180E
:1024200014436D1C0290F1E7109802C802911090BD
:10243000002904DA012040030443484202900220AC
:1024400004436D1C28782E2817D104200443687893
:102450006D1C2A280CD110986D1C02C80091109098
:102460000BE000990A225143303940186D1C00904E
:102470002878014630390929F3D928786C2810D0FA
:1024800006DC4C281AD068280ED06A2817D104E040
:10249000742813D07A2812D110E00120400504439B
:1024A0000CE00121090501E0032109050C436978CD
:1024B000814203D10120000524186D1C6D1C287871
:1024C000692874D006DC00288BD0632827D06428C4
:1024D00006D16CE06E2808D073282CD0752878D0EF
:1024E000129A11999047761C5FE06002400F022813
:1024F00009D003280DD00428109801680DD00E6073
:10250000001D109051E01098F21701680E604A60AB
:10251000F6E7109801680E80F2E70E70F0E7109869
:102520006A4601781173001D10900020507303A8B3
:102530000190012005E0109802C801911090002040
:10254000C04361070CD5002700E07F1C00998F4233
:102550000FDA8742F9DB0199C95D0029F5D108E05E
:10256000002700E07F1C8742FCDB0199C95D002940
:10257000F8D102982146C01B0290129B119A00F0DC
:10258000B3F88019C61907E0019801990078491C31
:102590000191129A119990477F1EF5D22146129B04
:1025A000119A029800F090F886196D1C16E70A201F
:1025B0000190109901C910916102490F032900D1BE
:1025C00000B2042900D140B2002803DA40422D2194
:1025D00003E00DE0210504D52B216A46117301218A
:1025E00003E0E10711D02021F7E70CAF0C9114E0D4
:1025F0000A200190109901C910916102490F032925
:1026000000D180B2042900D1C0B20021EDE70199C8
:10261000FDF76EFD30317F1E39700028F7D104A818
:10262000C01B20300190600704D5012000048443C2
:10263000009801E0012000900199884201DD401AD4
:1026400000E00020411800900C9809180298401AE8
:102650000290E00306D42146129B119A029800F0E2
:1026600043F8861900200D9008E003A9085C129A2F
:10267000119990470D98401C761C0D900C9988423A
:10268000F3DBE0030CD52146129B119A029800F06F
:102690002BF8861904E0129A302011999047761C85
:1026A0000099481E00900029F5DC05E03878129A60
:1026B0007F1C11999047761C0199481E01900029B2
:1026C000F4DC6BE709280100F8B5044600251E4636
:1026D0001746880404D405E039462020B0476D1C15
:1026E000641EF9D52846F8BDFFB50446002581B023
:1026F0001E46C80301D5302700E02027880404D5F2
:1027000005E038460399B0476D1C641EF9D528468C
:1027100005B0F0BD0A68531C0B60107070470000D4
:1027200010B50C210448FFF779F8002801D00120EA
:1027300010BD0020FCE70000BC01002010B50C21FA
:102740000448FFF79FF8002801D0012010BD0020A9
:10275000FCE70000BC01002070B504460D46012CCA
:1027600038D1002D04D0012D10D0022D31D11DE023
:1027700036480078172803DB00203449087004E04D
:1027800032480078401C3149087022E02F484078D8
:10279000322805DB2D48407832382C49487004E057
:1027A0002A4840780A302949487012E02749487879
:1027B0000A21FDF7B3FC092905D1244840780938DE
:1027C0002249487004E021484078401C1F49487065
:1027D00000BF3AE0022C38D1002D04D0012D10D0DA
:1027E000022D31D11DE01A480078172803DB0020A4
:1027F0001749087004E016480078401C1449087016
:1028000022E013484078322805DB114840783238FE
:102810000F49487004E00E4840780A300C4948706F
:1028200012E00B4948780A21FDF778FC092905D107
:102830000748407809380649487004E00448407861
:10284000401C0349487000BF00BF70BDCA00002093
:10285000CD00002010B50446207800280AD1228A35
:1028600091B2E068FDF75CFF2179884249D10120EF
:10287000207046E02078012815D16088401C6080D7
:10288000608802283DD100206080228A91B2E068F1
:10289000FDF746FF2179884202D10220207030E006
:1028A000002020702DE02078022806D1032020701F
:1028B00060790021A268904723E02078032820D186
:1028C000228A91B2E068FDF72BFF217988420CD073
:1028D000002020706061207E002803D160790221F1
:1028E000A2689047002020760BE06069401C606180
:1028F0006069642805D160790121A26890470120B0
:10290000207610BD7CB50546002001901B480123B0
:1029100001AA902100901A48FEF78AF9002801D0F8
:1029200001207CBD00BF1648FDF710FF2028FAD11A
:1029300012480223134A902100901148FDF7E4FF4A
:10294000002801D00120ECE700BF0D48FDF7FEFE96
:102950002028FAD10B48407844110A480078C0007A
:102960000443084800780020002803D01F20C0023C
:10297000204304B22C800020D3E70000881300001D
:1029800074010020D200002000B587B01548164918
:10299000086016491448C1600020134948600021AE
:1029A00011480161816041618161FEF78DFD002860
:1029B00002D0012007B000BD30200090002002901E
:1029C0000490039006900590094801900C226946F6
:1029D0000548FEF7E7FE002801D00120EAE70020C5
:1029E000E8E70000002C0140BC0100209F0F000020
:1029F000CF07000030B585B004460D46002020709A
:102A0000608028782071687860716868A060A86824
:102A1000E060E8682061002060612076E86800904E
:102A2000002001902878002801D0022000E0012039
:102A30000290022003906946A868FDF797FD05B053
:102A400030BD000000B591B0FF20F530FDF778FDF6
:102A500000BF5148406B012108434F494863084675
:102A6000406BC007C00F019000BF00BF00BF084609
:102A7000406B02210843484948630846406B0221E5
:102A80000840019000BF00BF01200D900E90032070
:102A90000F9080200C900CA905200007FDF766FD23
:102AA00001200C900CA905200007FDF75FFD802098
:102AB0000C900CA93948FDF759FD40200C900CA949
:102AC0003648FDF753FD20200C900CA93348FDF744
:102AD0004DFD00200D9002200E9001200F9000036C
:102AE0000C900CA905200007FDF740FD2C4809902B
:102AF000052000070A9010200B90002108A84170C3
:102B0000017008A92748FFF775FF052000070A9004
:102B100020200B90012108A8417008A921481C30F1
:102B2000FFF768FF052000070A9040200B90022164
:102B300008A8417008A91B483830FFF75BFF00F078
:102B400041F800F05DF8FFF71FFFFFF731F90020B3
:102B5000FFF7EDF81822144902A8FDF7F3FA062052
:102B6000012102AB10220091019001462020FDF7C7
:102B700075FB00200D4908700D4908700D4908705B
:102B80000D490870487088700C49087048700C49ED
:102B90000870487011B000BD0010024000040050E1
:102BA000B9300008E0000020B0320008C600002064
:102BB000D0000020D1000020C7000020CA00002063
:102BC000CD00002010B50B480B4908600B48486049
:102BD00001218903084881609021C16000210161C1
:102BE00080214161FDF7B6FD002801D0012010BD14
:102BF0000020FCE70054004074010020A086010082
:102C000010B50F480F4908600F490E48C1601320E6
:102C10000C49486000210B4801618160416181617C
:102C2000FEF752FC002801D0012010BD0548FEF738
:102C3000BFFC002801D00120F7E70020F5E70000E5
:102C400000040040340100203F1F0000FEF702F99D
:102C5000FDF7C8FAFFF7F6FE00200C49087013E0F4
:102C60000A48007800280FD00948FFF7F3FD08480C
:102C70001C30FFF7EFFD06483830FFF7EBFD00F0A2
:102C800009F8002001490870EAE70000C4000020AC
:102C9000E000002070B58AB0FC480078401CFB4979
:102CA00008700846007832287ED100200870F84865
:102CB00080783B281BD10020F54988700846407871
:102CC0003B280ED10020487008460078172802D112
:102CD0000020087010E0EE480078401CEC490870B5
:102CE0000AE0EB484078401CE949487004E0E848B5
:102CF0008078401CE6498870E648007800280DD0AE
:102D00000121090305200007FDF70AFD002822D153
:102D1000FFF714FD0020DF4908701CE0DC48007854
:102D2000DD490978884216D1D9484078DA4949788E
:102D3000884210D1D648807800280CD1012109039F
:102D400005200007FDF7ECFC012804D1FFF7E8FCA3
:102D50000120D0490870D148007800286CD1CC49B6
:102D600008780A21FDF7DAF93030C4B201201023C7
:102D70002246022100900020FDF7AEFAC4490878EF
:102D80000A21FDF7CBF93031CCB2012010232246C5
:102D9000022100900820FDF79FFA012010233A221B
:102DA00002210090184600E06EE1FDF795FAB8495F
:102DB00048780A21FDF7B2F93030C4B2012010235F
:102DC0002246022100901820FDF786FAB049487883
:102DD0000A21FDF7A3F93031CCB20120102322469D
:102DE000022100902020FDF777FA012010233A22DB
:102DF000022100902820FDF76FFAA54988780A2162
:102E0000FDF78CF93030C4B2012010232246022194
:102E100000903020FDF760FA9D4988780A21FDF77F
:102E20007DF93031CCB201201023224602210090DE
:102E30003820FDF751FAF1E098480078012875D163
:102E4000974908780A21FDF769F93030C4B29548EE
:102E50000078002801D0012000E000201023224645
:102E6000022100900020FDF737FA8D4908780A21E9
:102E7000FDF754F93031CCB28A480078002801D0EF
:102E8000012000E0002010232246022100900820AB
:102E9000FDF722FA012010233A2202210090184661
:102EA000FDF71AFA7E4948780A21FDF737F93030E4
:102EB000C4B27C480078012801D0012000E0002045
:102EC00010232246022100901820FDF705FA7449CC
:102ED00048780A21FDF722F93031CCB271480078E8
:102EE000022801D0012000E0002010232246022108
:102EF00000902020FDF7F0F901201023202202216C
:102F000000902820FDF7E8F901201023202202215B
:102F100000903020FDF7E0F901201023202202214B
:102F200000903820FDF7D8F978E0FFE75B4800789B
:102F3000022873D1584908780A21FDF7EFF830309C
:102F4000C4B258480078002801D0012000E00020D9
:102F500010232246022100900020FDF7BDF94E49C2
:102F600008780A21FDF7DAF83031CCB24D48007804
:102F7000002801D0012000E0002010232246022179
:102F800000900820FDF7A8F9012010233A22022121
:102F900000901846FDF7A0F93F4948780A21FDF74F
:102FA000BDF83030C4B23F480078012801D001207C
:102FB00000E0002010232246022100901820FDF797
:102FC0008BF9354948780A21FDF7A8F83031CCB2A1
:102FD00034480078022801D0012000E000201023AE
:102FE0002246022100902020FDF776F901201023CF
:102FF0002022022100902820FDF76EF901201023E5
:103000002022022100903020FDF766F901201023D4
:103010002022022100903820FDF75EF91F48007839
:10302000002831D109A8FFF76DFC00282BD1012021
:1030300003900A216A462420105EFDF76FF80D46C2
:103040000A216A462420105EFDF768F806466421CE
:10305000FDF764F80C462B46224613A104A8FFF79F
:1030600051F90120102304AA022100905020FDF7FD
:103070002DFA0120009003AB102202210190702054
:10308000FDF7ECF800BF00BF0AB070BDC60000201D
:10309000C7000020D1000020CD000020C500002086
:1030A000CA000020D000002025322E32642E2531A7
:1030B0002E3164200000000030B585B004460D4676
:1030C000022D2FD1002C24D129480078022803D1C9
:1030D00000202749087004E025480078401C244956
:1030E00008702348007800280ED0224A07CA02AB95
:1030F00007C30320012102AB10220091019002219D
:103100005020FDF7ABF800BF1948007800F03AF8FE
:103110002CE0022C2AD11848017815480078FFF7D6
:103120001BFB23E0012D21D1002C0DD1124800788A
:10313000022803D100201049087017E00E480078DB
:10314000401C0D49087011E0022C0FD1084800788E
:1031500001280BD10020064908700848007808496A
:1031600008700648407848700020887005B030BD6F
:10317000C5000020C8320008D0000020CA0000208E
:10318000C700002010B586B00446254B0FCB059331
:1031900002AB07C30420012102AB10220091019071
:1031A00000214020FDF75AF800201E490870002C2D
:1031B00004D0012C03D0022C2ED11AE02CE01A48A6
:1031C00000781A4908701848407848700220029028
:1031D0000320039004200490052005900420012181
:1031E00002AB10220091019000214020FDF736F83B
:1031F00012E0022002900320039006200490072092
:1032000005900420012102AB1022009101900021C1
:103210004020FDF723F800BF00BF06B010BD00003E
:10322000D4320008D0000020C7000020CA000020CF
:10323000000000000000000000000000000000008E
:10324000000000000000000000000000000000007E
:103250000100000002000000030000000400000064
:103260000600000007000000080000000900000040
:10327000000000000000000000000000000000004E
:103280000100000002000000030000000400000034
:1032900000093D0000127A000024F400408651012C
:1032A00000366E0100093D0000093D0000093D00A7
:1032B000090000000A0000000B0000000C000000E4
:1032C0000D0000000E0000000800000008000000D3
:1032D00008000000080000000800000008000000CE
:1032E000080000000000000000000000002F0000A7
:1032F00000000700070000147F147F1400242A7FB9
:103300002A12006264081323003649552250000037
:103310000503000000001C224100000041221C00A7
:103320000014083E08140008083E0808000000A029
:103330006000000808080808000060600000002025
:1033400010080402003E5149453E0000427F400003
:10335000004261514946002141454B310018141289
:103360007F10002745454539003C4A494930000156
:103370007109050300364949493600064949291EA5
:103380000000363600000000563600000008142207
:103390004100001414141414000041221408000207
:1033A0000151090600324959513E007C1211127C2C
:1033B000007F49494936003E41414122007F414159
:1033C000221C007F49494941007F09090901003E4B
:1033D0004149497A007F0808087F0000417F410089
:1033E000002040413F01007F08142241007F4040FF
:1033F0004040007F020C027F007F0408107F003EE7
:103400004141413E007F09090906003E4151215ECC
:10341000007F091929460046494949310001017FC9
:103420000101003F4040403F001F2040201F003F5F
:103430004038403F00631408146300070870080711
:1034400000615149454300007F41410000020408EA
:103450001020000041417F000004020102040040EE
:1034600040404040000001020400002054545478C1
:10347000007F4844443800384444442000384444E1
:10348000487F00385454541800087E09010200187F
:10349000A4A4A47C007F080404780000447D4000BC
:1034A000004080847D00007F102844000000417FA0
:1034B0004000007C04180478007C0804047800387C
:1034C0004444443800FC242424180018242418FC04
:1034D000007C0804040800485454542000043F446D
:1034E0004020003C4040207C001C2040201C003C30
:1034F0004030403C004428102844001CA0A0A07C80
:10350000004464544C440008364100000000007E32
:1035100000000000413608000010081020100000D4
:10352000000000000000000000000000000000009B
:1035300000F8000000000000003330000000001020
:103540000C06100C0600000000000000000040C047
:103550007840C0784000043F04043F040400007039
:1035600088FC08300000001820FF211E0000F00831
:10357000F000E018000000211C031E211E0000F0D6
:103580000888700000001E2123241927211010161E
:103590000E0000000000000000000000000000001D
:1035A00000E018040200000000071820400000029C
:1035B0000418E00000000040201807000000404010
:1035C00080F0804040000202010F01020200000072
:1035D00000F0000000000101011F010101000000D6
:1035E00000000000000080B070000000000000003B
:1035F00000000000000000010101010101010000C4
:10360000000000000000003030000000000000005A
:10361000000080601804006018060100000000E04F
:1036200010080810E000000F102020100F000010FC
:1036300010F8000000000020203F20200000007053
:10364000080808887000003028242221300000304B
:103650000888884830000018202020110E00000043
:10366000C02010F8000000070424243F240000F8C4
:103670000888880808000019212020110E0000E0A9
:10368000108888180000000F112020110E0000384B
:103690000808C83808000000003F00000000007063
:1036A000880808887000001C222121221C0000E0EC
:1036B00010080810E0000000312222110F00000065
:1036C00000C0C0000000000000303000000000001A
:1036D000008000000000000080600000000000008A
:1036E0008040201008000001020408102000404023
:1036F0004040404040000404040404040400000866
:10370000102040800000002010080402010000701A
:1037100048080808F0000000003036010000C03002
:10372000C828E810E0000718272423140B00000025
:10373000C038E0000000203C23020227382008F8AF
:10374000888888700000203F202020110E00C030A3
:10375000080808083800071820202010080008F87A
:1037600008080810E000203F202020100F0008F873
:103770008888E8081000203F20202320180008F83F
:103780008888E8081000203F200003000000C030B7
:1037900008080838000007182020221E020008F838
:1037A00008000008F808203F210101213F200008FF
:1037B00008F8080800000020203F2020000000003A
:1037C0000808F8080800C08080807F00000008F822
:1037D00088C028180800203F20012638200008F85B
:1037E000080000000000203F20202020300008F8C2
:1037F000F800F8F80800203F003F003F200008F8DC
:1038000030C00008F808203F200007183F00E010F3
:1038100008080810E0000F10202020100F0008F802
:1038200008080808F000203F210101010000E01015
:1038300008080810E0000F18242438504F0008F83A
:10384000888888887000203F2000030C302000709A
:103850008808080838000038202121221C00180898
:1038600008F8080818000000203F2000000008F8B1
:1038700008000008F808001F202020201F000878FA
:10388000880000C83808000007380E010000F8085A
:1038900000F80008F800033C0700073C0300081884
:1038A00068808068180820302C03032C30200838EA
:1038B000C800C83808000000203F200000001008A1
:1038C0000808C838080020382621202018000000E9
:1038D00000FE020202000000007F40404000000C99
:1038E00030C000000000000000010638C0000002E7
:1038F0000202FE000000004040407F000000000087
:1039000004020202040000000000000000000000A9
:1039100000000000000080808080808080800002A5
:103920000204000000000000000000000000000091
:103930008080808000000019242222223F2008F885
:10394000008080000000003F112020110E000000C8
:10395000008080800000000E112020201100000057
:1039600000808088F800000E112020103F20000009
:10397000808080800000001F22222222130000800D
:1039800080F0888888180020203F20200000000058
:10399000808080808000006B94949493600008F88D
:1039A000008080800000203F210000203F20008018
:1039B0009898000000000020203F20200000000018
:1039C00000809898000000C08080807F000008F888
:1039D000000080808000203F24022D30200000085D
:1039E00008F8000000000020203F20200000808018
:1039F000808080808000203F20003F20003F80802A
:103A0000008080800000203F210000203F20000037
:103A1000808080800000001F202020201F008080E8
:103A200000808000000080FFA12020110E00000017
:103A3000008080808000000E112020A0FF80808008
:103A400080008080800020203F21200001000000B5
:103A5000808080808000003324242424190000808A
:103A600080E0808000000000001F20200000808097
:103A7000000000808000001F202020103F20808058
:103A800080000080808000010E30080601008080E8
:103A90000080008080800F300C030C300F0000800D
:103AA0008000808080000020312E0E312000808038
:103AB00080000080808080818E7018060100008068
:103AC0008080808080000021302C22213000000086
:103AD0000000807C020200000000003F4040000027
:103AE0000000FF00000000000000FF0000000002D6
:103AF000027C800000000040403F00000000000603
:103B00000101020204040000000000000000106037
:103B1000028C0000FE9292929292FE000000040439
:103B20007E01407E42427E427E42427E4000000054
:103B3000FC242424FC252624FC24242404004030D6
:103B40008F80844C55252525554C80808000404031
:103B500042CC0040A09E8282829EA02020000000D5
:103B6000003F908840432C10284641808000001779
:103B700015D55557557D555755D51517000040405B
:103B8000407F555555555555557F4040400000FCE8
:103B9000848484FC001010101010FF101000003FEF
:103BA0001010103F0000010640807F00000000F868
:103BB000010600F0121212F2020202FE000000FFE3
:103BC0000000001F1111111F0040807F000000F84D
:103BD000012220222AF22222222202FE000000FFDD
:103BE00000001F01017F09110F40807F000020109D
:103BF0002CE7242400F01010FF1010F00000010149
:103C0000017F211100070202FF02020700000000ED
:103C100000000000000000000000000000000000A4
:103C20000000000000000000000000000000080884
:103C300089EE98007E42C24242C2427E00000201EA
:103C400000FF804320180700003F4040780020100C
:103C500008FC2310886704F40424548C00004030CE
:103C60000077808188B2848380E00011600080400A
:103C7000301E101010FF10101010101000004040E7
:103C800042424242427F4242424242404000106031
:103C9000028C0020242424FE22232220200004045D
:103CA0007E010000FE4242434242FE00000000E06E
:103CB00000FF1030C85452D1129408D010000100F7
:103CC00000FF0000FF1292FF005F807F000000E015
:103CD00000FF1020080808FF0808F8000000010095
:103CE00000FF008141310D030D3141818100000051
:103CF00000000000000000000000000000000000C4
:103D000000000000000000000000000000000000B3
:103D100000000000000000000000000000000000A3
:103D20000000000000000000000000000000000093
:103D30000000000000000000000000000000000083
:103D40000000000000000000000000000000000073
:103D50000000000000000000000000000000000063
:103D60000000000000000000000000000000000053
:103D70000000000000000000000000000000000043
:103D80000000000000000000000000000000000033
:103D90000000000000000000000000000000000023
:103DA0000000000000000000000000000000000013
:103DB000000000000000000000093D0000127A0031
:103DC0000024F4004086510100366E01EC3D0008ED
:103DD00000000020E0000000A4230008CC3E000802
:103DE000E000002020050000B423000800000000CF
:103DF00000000000000000000000000000000000C3
:103E000000000000000000000000000000000000B2
:103E100000000000000000000000000000000000A2
:103E20000000000000000000000000000000000092
:103E30000000000000000000000000000000000082
:103E40000000000000000000000000000000000072
:103E50000000000000000000000000000000000062
:103E60000000000000000000000000000000000052
:103E70000000000000000000000000000000000042
:103E80000000000000000000000000000000000032
:103E90000000000000000000000000000000000022
:103EA00000000000000000000000000000127A0086
:103EB0000000000000000000000000000000000002
:0C3EC000000000000400000001000000F1
:04000005080000C12E
:00000001FF
